:100000000C9436000C945E000C945E000C945E0020
:100010000C945E000C945E000C945E000C945E00E8
:100020000C945E000C945E000C945E000C945E00D8
:100030000C945E000C945E000C945E000C945E00C8
:100040000C94B8020C945E000C94F1040C947405AA
:100050000C945E000C945E000C945E000C945E00A8
:100060000C945E000C945E008502270511241FBECF
:10007000CFEFD8E0DEBFCDBF11E0A0E0B1E0E2E815
:10008000F5E102C005900D92AE39B107D9F712E043
:10009000AEE9B1E001C01D92A038B107E1F710E070
:1000A000CCE6D0E004C02297FE010E94BB0AC8360D
:1000B000D107C9F70E949A050C94BF0A0C9400005E
:1000C0006CE370E00E94700A882777FD8095982F76
:1000D0000E94360908950F931F93CF93DF930E94D8
:1000E0006A021091B90083EE91E063E171E00E9431
:1000F000240783EE91E0612F40E150E00E948206E8
:1001000080E80E947A021091B90083EE91E06EE0DF
:1001100071E00E94240783EE91E0612F40E150E0FE
:100120000E94820681EF0E947A021091B90083EE4C
:1001300091E06EE071E00E94240783EE91E0612F70
:1001400040E150E00E9482060E946A021091B900CC
:1001500083EE91E06EE071E00E94240783EE91E06F
:10016000612F40E150E00E94820681E80E947A02FD
:100170001091B90083EE91E06EE071E00E942407D7
:1001800083EE91E0612F40E150E00E9482061091E1
:10019000B90083EE91E06EE071E00E94240783EEE7
:1001A00091E0612F40E150E00E9482061091BB0077
:1001B00083EE91E066E171E00E942407C12FDD2704
:1001C000C7FDD09583EE91E0BE0142E050E00E9471
:1001D000F20681E00E947A021091B90083EE91E06C
:1001E0006EE071E00E94240783EE91E0612F40E110
:1001F00050E00E9482060091BB0083EE91E06EE128
:1002000071E00E94240783EE91E0602F42E050E00D
:100210000E94820681E00E947A021091B90083EE6A
:1002200091E06EE071E00E94240783EE91E0612F7F
:1002300040E150E00E9482068091BC0087FFFCCF25
:100240001091B90083EE91E06EE071E00E94240706
:1002500083EE91E0612F40E150E00E94820681E050
:100260000E947A021091B90083EE91E06EE071E095
:100270000E94240783EE91E0612F40E150E00E944C
:1002800094060E9472023C2F2227802F90E0282B98
:10029000392BC901DF91CF911F910F910895CF9212
:1002A000DF92EF92FF920F931F930E94000361155C
:1002B00071058105910541F40E94000362307105CA
:1002C0008105910508F471C00E9400039B01AC01F7
:1002D0006093A3017093A4018093A5019093A6015C
:1002E00080919E0190919F01A091A001B091A101E8
:1002F000281739074A075B0740F420939E01309383
:100300009F014093A0015093A10180919E01909183
:100310009F01A091A001B091A10179018A01E81A81
:10032000F90A0A0B1B0BD801C7018A3F9105A105E9
:10033000B105D8F18091A2018823B9F520939E01DF
:1003400030939F014093A0015093A10187EA91E06F
:100350000E94B4028091D8019091D90166E271E0C7
:100360000E9424078091D8019091D9016EE271E03A
:100370000E9424070091D8011091D9010E94000326
:10038000AB01BC01C8012AE030E00E9473068091F5
:10039000D8019091D90160E371E00E941E0865E0E8
:1003A00070E080E090E00E9449030E946B00182FEB
:1003B000092F0E9460006B017C0183EE91E0612FA8
:1003C000702F4AE050E00E94F20683EE91E067E36E
:1003D00071E00E94240783EE91E0612F702F42E0CC
:1003E00050E00E94050783EE91E06AE371E00E940D
:1003F000240783EE91E0B701A60122E030E00E94DD
:100400000B0868EE73E080E090E00E9449031F91C2
:100410000F91FF90EF90DF90CF900895EF92FF92B1
:100420000F931F9307EA11E083EEE82E81E0F82E88
:10043000C801B70120E032EC41E050E00E948602A2
:1004400060ED77E080E090E00E944903C8010E94DF
:10045000B4028091D8019091D90167E471E00E94C3
:100460001E086AE070E080E090E00E944903C80145
:1004700060E040E00E948402C70140E052EC61E08D
:1004800070E026E00E94E103C70166E571E00E948A
:100490002407C70161E870E04AE050E00E940507C8
:1004A0000E946102C70167E671E00E942407C7014C
:1004B0006BE771E00E941E081F910F91FF90EF9073
:1004C00008951092B90088E48093B80084E0809386
:1004D000BC00089584EA8093BC008091BC0087FF33
:1004E000FCCF089584E98093BC008091BC0084FF18
:1004F000FCCF08958093BB0084E88093BC0080917A
:10050000BC0087FFFCCF089508950895FC0172ABED
:1005100061ABCB01BA01A90126E00E94E103089575
:10052000CF93DF93EC01662339F015C063E070E0F0
:1005300080E090E00E9449030E94000329813A81F3
:100540004B815C81621B730B840B950B62337105CD
:100550008105910558F30E94000369837A838B8398
:100560009C83DF91CF91089560E00E9490020895EE
:100570001F920F920FB60F9211242F933F938F93D8
:100580009F93AF93BF938091DE019091DF01A09183
:10059000E001B091E1013091E2010196A11DB11D90
:1005A000232F2D5F2D3720F02D570196A11DB11D52
:1005B0002093E2018093DE019093DF01A093E0019C
:1005C000B093E1018091DA019091DB01A091DC010F
:1005D000B091DD010196A11DB11D8093DA019093C8
:1005E000DB01A093DC01B093DD01BF91AF919F913E
:1005F0008F913F912F910F900FBE0F901F901895E4
:100600008FB7F8942091DE013091DF014091E00135
:100610005091E1018FBFB901CA010895789484B562
:10062000826084BD84B5816084BD85B5826085BDEE
:1006300085B5816085BDEEE6F0E0808181608083D4
:10064000E1E8F0E0108280818260808380818160B7
:100650008083E0E8F0E0808181608083E1EBF0E07E
:10066000808184608083E0EBF0E080818160808322
:10067000EAE7F0E08081846080838081826080830B
:100680008081816080838081806880831092C10036
:100690000895EF92FF920F931F93CF93DF937B0107
:1006A0008C013FB7F8948091DA019091DB01A09121
:1006B000DC01B091DD0126B5A89B05C02F3F19F0E4
:1006C0000196A11DB11D3FBFBA2FA92F982F8827D2
:1006D000820F911DA11DB11D52E0880F991FAA1F05
:1006E000BB1F5A95D1F7EC0130C00E9431083FB7CB
:1006F000F8948091DA019091DB01A091DC01B09136
:10070000DD0126B5A89B05C02F3F19F00196A11D5C
:10071000B11D3FBFBA2FA92F982F8827820F911D97
:10072000A11DB11D32E0880F991FAA1FBB1F3A956A
:10073000D1F78C1B9D0B885E9340B8F20894E108BA
:10074000F10801091109C851DC4FE114F104010558
:10075000110559F6DF91CF911F910F91FF90EF9006
:100760000895DC015C968C915C97FD01E80FF11D0A
:10077000E35AFF4F20815C968C915C9790E0019644
:100780008F7390705C968C935C975696ED91FC916C
:10079000579720835096ED91FC915197808180640A
:1007A00080835B969C915B975C968C915C97981785
:1007B00039F45296ED91FC91539780818F7D80831F
:1007C0000895DF92EF92FF920F931F93CF93DF93E1
:1007D000EC017A018B01D22EE889F98982E08083CD
:1007E000403081EE580780E0680780E07807A1F08C
:1007F00060E079E08DE390E0A80197010E94830A10
:1008000021503040404050405695479537952795A8
:1008100080E12030380798F0E889F989108260E893
:1008200074E88EE190E0A80197010E94830A2150AC
:100830003040404050405695479537952795EC8578
:10084000FD853083EE85FF852083188EEC89FD8938
:10085000D082EA89FB89808180618083EA89FB8973
:10086000808188608083EA89FB89808180688083B9
:10087000EA89FB8980818F7D8083DF91CF911F91F1
:100880000F91FF90EF90DF900895FC01218D828DF4
:1008900030E0205C3F4F281B31092F733070C901B5
:1008A0000895FC01918D828D981719F42FEF3FEF79
:1008B00006C0828DE80FF11D858D282F30E0C9011B
:1008C0000895DC0159969C9159975A968C915A97A4
:1008D000981719F42FEF3FEF10C05A968C915A9742
:1008E000FD01E80FF11D958D5A968C915A978F5FF7
:1008F0008F735A968C93292F30E0C9010895CF93B6
:10090000DF93EC01888D882361F419C08C9185FFF9
:100910000AC0E889F989808185FF05C0CE010E945F
:10092000B103AA89BB898C9185FD05C0E889F98945
:10093000808186FD04C00FB607FEE8CFF4CFDF91BB
:10094000CF9108950F931F93CF93DF93EC01062F60
:100950009B8D8C8D981791F5E889F989808185FFA9
:100960002DC0EE89FF896083E889F98980818064E0
:1009700080831DC00FB607FC08C0E889F989808113
:1009800085FF03C0CE010E94B1038C8D181791F32F
:100990008B8DFE01E80FF11DE35AFF4F00831B8F83
:1009A000EA89FB8980818062808381E0888F81E091
:1009B00090E0DF91CF911F910F9108951B8D1F5FE4
:1009C0001F73E3CF8AE695E0892B51F080E090E039
:1009D000892B31F00E946A05882311F00E940000E3
:1009E00008951F920F920FB60F9211242F938F9399
:1009F0009F93EF93FF93E091F301F091F4018081D5
:100A000082FD16C0E091F901F091FA0120819091E8
:100A1000FC019F5F9F738091FD01981771F0E09139
:100A2000FC01F0E0ED51FE4F258F9093FC0105C0D5
:100A3000E091F901F091FA01E081FF91EF919F912E
:100A40008F912F910F900FBE0F901F9018951092BD
:100A5000E6011092E50188EE93E0A0E0B0E080931B
:100A6000E7019093E801A093E901B093EA0181E9DD
:100A700091E09093E4018093E30185EC90E0909302
:100A8000F0018093EF0184EC90E09093F201809369
:100A9000F10180EC90E09093F4018093F30181ECFC
:100AA00090E09093F6018093F50182EC90E09093B2
:100AB000F8018093F70186EC90E09093FA0180931F
:100AC000F9011092FC011092FD011092FE011092AA
:100AD000FF01089583EE91E00E94450420E0892BF8
:100AE00009F021E0822F08951F920F920FB60F9206
:100AF00011242F933F934F935F936F937F938F9323
:100B00009F93AF93BF93EF93FF9383EE91E00E9487
:100B1000B103FF91EF91BF91AF919F918F917F9121
:100B20006F915F914F913F912F910F900FBE0F905A
:100B30001F901895CF93DF930E940E030E940E0220
:100B4000C2EED4E00E944F012097E1F30E94E2043C
:100B5000F9CFCF92DF92EF92FF920F931F93CF9333
:100B6000DF937C016B018A01C0E0D0E00FC0D601A9
:100B70006D916D01D701ED91FC910190F081E02D17
:100B8000C7010995C80FD91F015010400115110563
:100B900071F7CE01DF91CF911F910F91FF90EF90F0
:100BA000DF90CF900895EF92FF920F931F938C01E7
:100BB000DC01ED91FC910190F081E02D6DE0099553
:100BC0007C01D801ED91FC910190F081E02DC801EC
:100BD0006AE009959C012E0D3F1DC9011F910F91DF
:100BE000FF90EF900895CF93DF93EC0161157105AD
:100BF00019F420E030E00FC0DB010D900020E9F790
:100C00001197A61BB70BE881F9810280F381E02DD3
:100C1000AD0109959C01C901DF91CF9108954F92D3
:100C20005F927F928F929F92AF92BF92CF92DF920C
:100C3000EF92FF920F931F93DF93CF93CDB7DEB761
:100C4000A1970FB6F894DEBF0FBECDBF2C01742E56
:100C5000CB01223008F42AE019A231E2C32ED12CB4
:100C6000CC0EDD1E822E9924AA24BB24672D752F5D
:100C7000A50194010E94830A79018A01C801B70184
:100C8000A50194010E94510A472D461B0894C108F2
:100C9000D1084A3014F4405D01C0495CF60140833C
:100CA000E114F1040105110521F07E2C5F2DC8012E
:100CB000DDCFC201B6010E94F305A1960FB6F894EC
:100CC000DEBF0FBECDBFCF91DF911F910F91FF907F
:100CD000EF90DF90CF90BF90AF909F908F907F90DC
:100CE0005F904F900895DC012115310541F4ED919D
:100CF000FC910190F081E02D642F099508950E94E8
:100D00000F060895EF92FF920F931F939A01E62E1C
:100D1000FF2400E010E0B801A7010E9473061F91B4
:100D20000F91FF90EF900895CF92DF92EF92FF9294
:100D30000F931F936C01E62E9A01FF2400E010E050
:100D4000B801A7010E9473068C01C6010E94D30559
:100D5000080F191FC8011F910F91FF90EF90DF90AE
:100D6000CF900895CF92DF92EF92FF920F931F934F
:100D7000CF93DF93EC016A017B012115310541F42A
:100D8000E881F9810190F081E02D642F09951FC061
:100D90002A303105D1F477FF17C0E881F98101903D
:100DA000F081E02D6DE209958C0144275527BA01A9
:100DB0004C195D096E097F09CE012AE00E940F06D9
:100DC0009801280F391F04C02AE00E940F069C01D9
:100DD000C901DF91CF911F910F91FF90EF90DF90AC
:100DE000CF900895EF92FF920F931F937B019A018A
:100DF0000027F7FC0095102FB801A7010E94B2064A
:100E00001F910F91FF90EF900895CF92DF92EF9294
:100E1000FF920F931F936C017B019A010027F7FC4F
:100E20000095102FB801A7010E94B2068C01C601DF
:100E30000E94D305080F191FC8011F910F91FF9041
:100E4000EF90DF90CF9008950E94F30508957F9270
:100E50008F929F92AF92BF92CF92DF92EF92FF92CA
:100E60000F931F93CF93DF934C017A018B01722E66
:100E7000CB01BA01A80197010E944D0A882321F0F5
:100E8000C4016FE771E021C0C0E0D0E05701680104
:100E9000E894D7F8C601B5012FEF3FEF4FE75FE7C2
:100EA0000E944D0A882351F4C601B5012FEF3FEF90
:100EB0004FE75FE70E949708181614F0C1E0D0E0F2
:100EC000219739F0C40163E871E00E94F305EC0159
:100ED00093C0C801B7012FEF3FEF4FE75FE40E94D7
:100EE000E609181654F0C801B7012FEF3FEF4FE79E
:100EF0005FEC0E949708882324F4C40167E871E03E
:100F0000E4CFC801B70120E030E040E050E00E94AB
:100F1000970887FD03C0C0E0D0E00EC0D401ED917A
:100F2000FC910190F081E02DC4016DE20995EC0186
:100F300017FB109517F9109520E030E040E05FE3D3
:100F4000DD240BC0CA01B90120E030E040E251E4E9
:100F50000E949B089B01AC01D394D71498F3C8015D
:100F6000B7010E9433085B016C010E9408097B01F4
:100F70008C01C401B801A7012AE030E00E94730689
:100F8000C80FD91F772039F0C4016BE871E00E94C7
:100F9000F305C80FD91FC801B7010E9434099B018E
:100FA000AC01C601B5010E94320824C020E030E047
:100FB00040E251E40E94EA097B018C010E9403098E
:100FC0005B016C01CC24B7FCC094DC2CC401B601DD
:100FD000A5012AE030E00E94B206C80FD91FC60161
:100FE000B5010E9436099B01AC01C801B7010E94FE
:100FF00032087A947720D1F6CE01DF91CF911F91FC
:101000000F91FF90EF90DF90CF90BF90AF909F90A7
:101010008F907F900895EF92FF920F931F937C0122
:101020000E9427078C01C7010E94D305080F191FD2
:10103000C8011F910F91FF90EF900895EF92FF92DA
:101040000F931F937C010E94F3058C01C7010E943E
:10105000D305080F191FC8011F910F91FF90EF9042
:10106000089508955058BB27AA270ED075C166D1A0
:1010700030F06BD120F031F49F3F11F41EF45BC1CE
:101080000EF4E095E7FB51C1E92F77D180F3BA1751
:10109000620773078407950718F071F49EF58FC1F6
:1010A0000EF4E0950B2EBA2FA02D0B01B901900183
:1010B0000C01CA01A0011124FF27591B99F0593FC7
:1010C00050F4503E68F11A16F040A22F232F342F0F
:1010D0004427585FF3CF469537952795A795F0405D
:1010E0005395C9F77EF41F16BA0B620B730B840B72
:1010F000BAF09150A1F0FF0FBB1F661F771F881F2A
:10110000C2F70EC0BA0F621F731F841F48F4879581
:1011100077956795B795F7959E3F08F0B3CF939570
:10112000880F08F09927EE0F979587950895D9D0E5
:1011300008F481E008950CD00FC107D140F0FED033
:1011400030F021F45F3F19F0F0C0511139C1F3C004
:1011500014D198F39923C9F35523B1F3951B550B7B
:10116000BB27AA2762177307840738F09F5F5F4F7A
:10117000220F331F441FAA1FA9F333D00E2E3AF0BB
:10118000E0E830D091505040E695001CCAF729D0D5
:10119000FE2F27D0660F771F881FBB1F2617370724
:1011A0004807AB07B0E809F0BB0B802DBF01FF2754
:1011B00093585F4F2AF09E3F510568F0B6C000C1BA
:1011C0005F3FECF3983EDCF3869577956795B7958E
:1011D000F7959F5FC9F7880F911D9695879597F9A9
:1011E0000895E1E0660F771F881FBB1F6217730722
:1011F0008407BA0720F0621B730B840BBA0BEE1F37
:1012000088F7E095089504D06894B111D9C0089585
:10121000BCD088F09F5790F0B92F9927B751A0F014
:10122000D1F0660F771F881F991F1AF0BA95C9F77A
:1012300012C0B13081F0C3D0B1E00895C0C0672FB3
:10124000782F8827B85F39F0B93FCCF3869577952A
:101250006795B395D9F73EF4909580957095619513
:101260007F4F8F4F9F4F0895E89409C097FB3EF43E
:1012700090958095709561957F4F8F4F9F4F9923E3
:10128000A9F0F92F96E9BB279395F6958795779561
:101290006795B795F111F8CFFAF4BB0F11F460FF21
:1012A0001BC06F5F7F4F8F4F9F4F16C0882311F079
:1012B00096E911C0772321F09EE8872F762F05C08D
:1012C000662371F096E8862F70E060E02AF09A9528
:1012D000660F771F881FDAF7880F9695879597F91D
:1012E0000895990F0008550FAA0BE0E8FEEF1616B7
:1012F0001706E807F907C0F012161306E407F5070A
:1013000098F0621B730B840B950B39F40A2661F07D
:10131000232B242B252B21F408950A2609F4A14020
:10132000A6958FEF811D811D089597F99F6780E82D
:1013300070E060E008959FEF80EC089500240A9427
:101340001616170618060906089500240A941216A0
:101350001306140605060895092E0394000C11F4D3
:10136000882352F0BB0F40F4BF2B11F460FF04C080
:101370006F5F7F4F8F4F9F4F089557FD9058440FD9
:10138000551F59F05F3F71F04795880F97FB991FE4
:1013900061F09F3F79F087950895121613061406A1
:1013A000551FF2CF4695F1DF08C01616170618062E
:1013B000991FF1CF86957105610508940895E89409
:1013C000BB2766277727CB0197F908958ADF08F4B2
:1013D0008FEF08950BD0C0CFB1DF28F0B6DF18F043
:1013E000952309F0A2CFA7CF1124EACFC6DFA0F33F
:1013F000959FD1F3950F50E0551F629FF001729FAA
:10140000BB27F00DB11D639FAA27F00DB11DAA1FC8
:10141000649F6627B00DA11D661F829F2227B00D15
:10142000A11D621F739FB00DA11D621F839FA00DA0
:10143000611D221F749F3327A00D611D231F849FF0
:10144000600D211D822F762F6A2F11249F57504047
:101450008AF0E1F088234AF0EE0FFF1FBB1F661FE2
:10146000771F881F91505040A9F79E3F510570F09B
:101470005CCFA6CF5F3FECF3983EDCF38695779583
:101480006795B795F795E7959F5FC1F7FE2B880F96
:10149000911D9695879597F9089523DF880B990BF1
:1014A0000895629FD001739FF001829FE00DF11DAE
:1014B000649FE00DF11D929FF00D839FF00D749FCE
:1014C000F00D659FF00D9927729FB00DE11DF91F7A
:1014D000639FB00DE11DF91FBD01CF0111240895D7
:1014E00097FB092E07260AD077FD04D02ED006D010
:1014F00000201AF4709561957F4F0895F6F7909546
:1015000081959F4F0895A1E21A2EAA1BBB1BFD01D6
:101510000DC0AA1FBB1FEE1FFF1FA217B307E407D2
:10152000F50720F0A21BB30BE40BF50B661F771F2A
:10153000881F991F1A9469F760957095809590950A
:101540009B01AC01BD01CF010895AA1BBB1B51E15A
:1015500007C0AA1FBB1FA617B70710F0A61BB70B23
:10156000881F991F5A95A9F780959095BC01CD01C8
:101570000895EE0FFF1F0590F491E02D0994F89463
:02158000FFCF9B
:101582002C204C53423A002C204D53423A002C203E
:101592003078003078002C204D53423A20002C2025
:1015A2004C53423A2000564D4450455F31007C0076
:1015B2005F564D445045002C200041637475616CA8
:1015C2002056616C3A2000564D4450565F317C5F84
:1015D200564D4450560053656E736F7220416464D9
:1015E200726573733A2000466C6F772052656164AE
:1015F200696E67202864656329200062696E006E47
:10160200616E00696E66006F7666002E0000000053
:0E16120000A204A9054504610451047F0400F0
:00000001FF
