:100000000C9436000C945E000C945E000C945E0020
:100010000C945E000C945E000C945E000C945E00E8
:100020000C945E000C945E000C945E000C945E00D8
:100030000C945E000C945E000C945E000C945E00C8
:100040000C948E020C945E000C94C7040C944A0528
:100050000C945E000C945E000C945E000C945E00A8
:100060000C945E000C945E005B02FD0411241FBE24
:10007000CFEFD8E0DEBFCDBF11E0A0E0B1E0E4EB10
:10008000FEE002C005900D92A238B107D9F712E048
:10009000A2E8B1E001C01D92A436B107E1F710E07B
:1000A000CCE6D0E004C02297FE010E945407C83677
:1000B000D107C9F70E9470050C9458070C940000F2
:1000C000FF920F931F930E9440021091B90087EC9A
:1000D00091E063E171E00E94FA0687EC91E0612F04
:1000E00040E150E00E94580680E80E9450021091C2
:1000F000B90087EC91E06EE071E00E94FA0687ECAF
:1001000091E0612F40E150E00E94580681EF0E948B
:1001100050021091B90087EC91E06EE071E00E940E
:10012000FA0687EC91E0612F40E150E00E9458060A
:100130000E9440021091B90087EC91E06EE071E0FE
:100140000E94FA0687EC91E0612F40E150E00E94A6
:10015000580681E80E9450021091B90087EC91E0A6
:100160006EE071E00E94FA0687EC91E0612F40E1B9
:1001700050E00E9458061091B90087EC91E06EE0C3
:1001800071E00E94FA0687EC91E0612F40E150E0B7
:100190000E945806F090BB0087EC91E066E171E0A8
:1001A0000E94FA0687EC91E06F2D42E050E00E9439
:1001B000580681E00E9450021091B90087EC91E04E
:1001C0006EE071E00E94FA0687EC91E0612F40E159
:1001D00050E00E9458060091BB0087EC91E06EE170
:1001E00071E00E94FA0687EC91E0602F42E050E057
:1001F0000E94580681E00E9450021091B90087ECDD
:1002000091E06EE071E00E94FA0687EC91E0612FC8
:1002100040E150E00E9458068091BC0087FFFCCF6F
:100220001091B90087EC91E06EE071E00E94FA064F
:1002300087EC91E0612F40E150E00E94580681E098
:100240000E9450021091B90087EC91E06EE071E0DD
:100250000E94FA0687EC91E0612F40E150E00E9495
:100260006A060E9448029F2D80E0202F30E0282B54
:10027000392BC9011F910F91FF900895EF92FF92C2
:100280000F931F930E94D602611571058105910598
:1002900041F40E94D602623071058105910508F48F
:1002A00071C00E94D6029B01AC01609387017093DC
:1002B00088018093890190938A01809182019091B5
:1002C0008301A0918401B0918501281739074A075D
:1002D0005B0740F4209382013093830140938401B3
:1002E000509385018091820190918301A0918401B6
:1002F000B091850179018A01E81AF90A0A0B1B0BF2
:10030000D801C7018A3F9105A105B105D8F18091B7
:1003100086018823B9F520938201309383014093AD
:100320008401509385018BE891E00E948A028091BC
:10033000BC019091BD0166E271E00E94FA068091D5
:10034000BC019091BD016EE271E00E94FA0600913D
:10035000BC011091BD010E94D602AB01BC01C801D5
:100360002AE030E00E9449068091BC019091BD01D5
:1003700060E371E00E94FD0665E070E080E090E0DF
:100380000E941F030E9460008C0187EC91E0B8017D
:100390004AE050E00E94C80687EC91E067E371E014
:1003A0000E94FA0687EC91E0B80142E050E00E941A
:1003B000DB0668EE73E080E090E00E941F031F916F
:1003C0000F91FF90EF900895EF92FF920F931F937C
:1003D0000BE811E087ECE82E81E0F82EC801B701A8
:1003E00020E032EC41E050E00E945C0260ED77E0FA
:1003F00080E090E00E941F03C8010E948A02809161
:10040000BC019091BD016AE371E00E94FD066AE0C3
:1004100070E080E090E00E941F03C80160E040E0CF
:100420000E945A02C70140E052EC61E070E026E011
:100430000E94B703C70169E471E00E94FA06C70190
:1004400061E870E04AE050E00E94DB060E9437025B
:10045000C7016AE571E00E94FA06C7016EE671E025
:100460000E94FD061F910F91FF90EF90089510924A
:10047000B90088E48093B80084E08093BC000895BC
:1004800084EA8093BC008091BC0087FFFCCF089574
:1004900084E98093BC008091BC0084FFFCCF089568
:1004A0008093BB0084E88093BC008091BC0087FFF0
:1004B000FCCF089508950895FC0172AB61ABCB01A8
:1004C000BA01A90126E00E94B7030895CF93DF93F4
:1004D000EC01662339F015C063E070E080E090E045
:1004E0000E941F030E94D60229813A814B815C81C0
:1004F000621B730B840B950B6233710581059105AB
:1005000058F30E94D60269837A838B839C83DF91A0
:10051000CF91089560E00E94660208951F920F92A5
:100520000FB60F9211242F933F938F939F93AF9306
:10053000BF938091C2019091C301A091C401B09179
:10054000C5013091C6010196A11DB11D232F2D5F5C
:100550002D3720F02D570196A11DB11D2093C60106
:100560008093C2019093C301A093C401B093C501CD
:100570008091BE019091BF01A091C001B091C101D5
:100580000196A11DB11D8093BE019093BF01A09360
:10059000C001B093C101BF91AF919F918F913F91E5
:1005A0002F910F900FBE0F901F9018958FB7F89452
:1005B0002091C2013091C3014091C4015091C50105
:1005C0008FBFB901CA010895789484B5826084BD53
:1005D00084B5816084BD85B5826085BD85B5816047
:1005E00085BDEEE6F0E0808181608083E1E8F0E0A7
:1005F0001082808182608083808181608083E0E8D6
:10060000F0E0808181608083E1EBF0E080818460B4
:100610008083E0EBF0E0808181608083EAE7F0E0B6
:10062000808184608083808182608083808181601A
:1006300080838081806880831092C1000895EF924A
:10064000FF920F931F93CF93DF937B018C013FB7F2
:10065000F8948091BE019091BF01A091C001B0912A
:10066000C10126B5A89B05C02F3F19F00196A11D19
:10067000B11D3FBFBA2FA92F982F8827820F911D38
:10068000A11DB11D52E0880F991FAA1FBB1F5A95CB
:10069000D1F7EC0130C00E9410073FB7F894809169
:1006A000BE019091BF01A091C001B091C10126B5DA
:1006B000A89B05C02F3F19F00196A11DB11D3FBF9A
:1006C000BA2FA92F982F8827820F911DA11DB11D28
:1006D00032E0880F991FAA1FBB1F3A95D1F78C1BD8
:1006E0009D0B885E9340B8F20894E108F108010977
:1006F0001109C851DC4FE114F1040105110559F647
:10070000DF91CF911F910F91FF90EF900895DC0141
:100710005C968C915C97FD01E80FF11DE35AFF4F49
:1007200020815C968C915C9790E001968F7390701D
:100730005C968C935C975696ED91FC91579720832D
:100740005096ED91FC9151978081806480835B96F7
:100750009C915B975C968C915C97981739F45296B4
:10076000ED91FC91539780818F7D80830895DF9276
:10077000EF92FF920F931F93CF93DF93EC017A01D7
:100780008B01D22EE889F98982E08083403081EEA6
:10079000580780E0680780E07807A1F060E079E022
:1007A0008DE390E0A80197010E943007215030406E
:1007B00040405040569547953795279580E1203029
:1007C000380798F0E889F989108260E874E88EE1CA
:1007D00090E0A80197010E9430072150304040402E
:1007E00050405695479537952795EC85FD85308384
:1007F000EE85FF852083188EEC89FD89D082EA89F9
:10080000FB89808180618083EA89FB89808188609F
:100810008083EA89FB89808180688083EA89FB89FB
:1008200080818F7D8083DF91CF911F910F91FF9009
:10083000EF90DF900895FC01218D828D30E0205CE7
:100840003F4F281B31092F733070C9010895FC01F7
:10085000918D828D981719F42FEF3FEF06C0828D8E
:10086000E80FF11D858D282F30E0C9010895DC01C6
:1008700059969C9159975A968C915A97981719F4B2
:100880002FEF3FEF10C05A968C915A97FD01E80F59
:10089000F11D958D5A968C915A978F5F8F735A964A
:1008A0008C93292F30E0C9010895CF93DF93EC0199
:1008B000888D882361F419C08C9185FF0AC0E8896E
:1008C000F989808185FF05C0CE010E948703AA892E
:1008D000BB898C9185FD05C0E889F989808186FDF9
:1008E00004C00FB607FEE8CFF4CFDF91CF91089593
:1008F0000F931F93CF93DF93EC01062F9B8D8C8D6D
:10090000981791F5E889F989808185FF2DC0EE89D6
:10091000FF896083E889F9898081806480831DC0B4
:100920000FB607FC08C0E889F989808185FF03C0FC
:10093000CE010E9487038C8D181791F38B8DFE01D9
:10094000E80FF11DE35AFF4F00831B8FEA89FB89F3
:1009500080818062808381E0888F81E090E0DF91F8
:10096000CF911F910F9108951B8D1F5F1F73E3CFD0
:1009700080E495E0892B51F080E090E0892B31F004
:100980000E944005882311F00E94000008951F92E4
:100990000F920FB60F9211242F938F939F93EF9383
:1009A000FF93E091D701F091D801808182FD16C0BC
:1009B000E091DD01F091DE0120819091E0019F5FE7
:1009C0009F738091E101981771F0E091E001F0E0F0
:1009D000E953FE4F258F9093E00105C0E091DD01C2
:1009E000F091DE01E081FF91EF919F918F912F9126
:1009F0000F900FBE0F901F9018951092CA01109281
:100A0000C90188EE93E0A0E0B0E08093CB01909321
:100A1000CC01A093CD01B093CE0186E791E09093F5
:100A2000C8018093C70185EC90E09093D401809336
:100A3000D30184EC90E09093D6018093D50180ECB3
:100A400090E09093D8018093D70181EC90E090934F
:100A5000DA018093D90182EC90E09093DC018093DD
:100A6000DB0186EC90E09093DE018093DD01109233
:100A7000E0011092E1011092E2011092E301089569
:100A800087EC91E00E941B0420E0892B09F021E013
:100A9000822F08951F920F920FB60F9211242F9359
:100AA0003F934F935F936F937F938F939F93AF93F6
:100AB000BF93EF93FF9387EC91E00E948703FF9130
:100AC000EF91BF91AF919F918F917F916F915F91C6
:100AD0004F913F912F910F900FBE0F901F9018953F
:100AE000CF93DF930E94E4020E94E401C8EBD4E0BC
:100AF0000E943E012097E1F30E94B804F9CFCF9203
:100B0000DF92EF92FF920F931F93CF93DF937C01BD
:100B10006B018A01C0E0D0E00FC0D6016D916D017C
:100B2000D701ED91FC910190F081E02DC70109956D
:100B3000C80FD91F015010400115110571F7CE01E2
:100B4000DF91CF911F910F91FF90EF90DF90CF90A9
:100B50000895EF92FF920F931F938C01DC01ED91AA
:100B6000FC910190F081E02D6DE009957C01D801A8
:100B7000ED91FC910190F081E02DC8016AE00995AA
:100B80009C012E0D3F1DC9011F910F91FF90EF9009
:100B90000895CF93DF93EC016115710519F420E0FE
:100BA00030E00FC0DB010D900020E9F71197A61B84
:100BB000B70BE881F9810280F381E02DAD01099541
:100BC0009C01C901DF91CF9108954F925F927F926E
:100BD0008F929F92AF92BF92CF92DF92EF92FF924D
:100BE0000F931F93DF93CF93CDB7DEB7A1970FB6C7
:100BF000F894DEBF0FBECDBF2C01742ECB01223086
:100C000008F42AE019A231E2C32ED12CCC0EDD1E4D
:100C1000822E9924AA24BB24672D752FA501940147
:100C20000E94300779018A01C801B701A50194012A
:100C30000E941107472D461B0894C108D1084A306D
:100C400014F4405D01C0495CF6014083E114F104F5
:100C50000105110521F07E2C5F2DC801DDCFC201F9
:100C6000B6010E94C905A1960FB6F894DEBF0FBE6B
:100C7000CDBFCF91DF911F910F91FF90EF90DF904B
:100C8000CF90BF90AF909F908F907F905F904F904C
:100C90000895DC012115310541F4ED91FC9101909D
:100CA000F081E02D642F099508950E94E5050895CF
:100CB000EF92FF920F931F939A01E62EFF2400E01C
:100CC00010E0B801A7010E9449061F910F91FF9003
:100CD000EF900895CF92DF92EF92FF920F931F93C0
:100CE0006C01E62E9A01FF2400E010E0B801A70194
:100CF0000E9449068C01C6010E94A905080F191F10
:100D0000C8011F910F91FF90EF90DF90CF90089551
:100D1000CF92DF92EF92FF920F931F93CF93DF93C7
:100D2000EC016A017B012115310541F4E881F9816B
:100D30000190F081E02D642F09951FC02A30310504
:100D4000D1F477FF17C0E881F9810190F081E02D9F
:100D50006DE209958C0144275527BA014C195D09AC
:100D60006E097F09CE012AE00E94E5059801280F4F
:100D7000391F04C02AE00E94E5059C01C901DF91EA
:100D8000CF911F910F91FF90EF90DF90CF9008953A
:100D9000EF92FF920F931F937B019A010027F7FCBC
:100DA0000095102FB801A7010E9488061F910F918E
:100DB000FF90EF900895CF92DF92EF92FF920F9302
:100DC0001F936C017B019A010027F7FC0095102FFF
:100DD000B801A7010E9488068C01C6010E94A905DE
:100DE000080F191FC8011F910F91FF90EF90DF901E
:100DF000CF9008950E94C9050895EF92FF920F9336
:100E00001F937C010E94C9058C01C7010E94A9059E
:100E1000080F191FC8011F910F91FF90EF900895BF
:100E20000895629FD001739FF001829FE00DF11D34
:100E3000649FE00DF11D929FF00D839FF00D749F54
:100E4000F00D659FF00D9927729FB00DE11DF91F00
:100E5000639FB00DE11DF91FBD01CF01112408955D
:100E6000A1E21A2EAA1BBB1BFD010DC0AA1FBB1FAE
:100E7000EE1FFF1FA217B307E407F50720F0A21B20
:100E8000B30BE40BF50B661F771F881F991F1A948D
:100E900069F760957095809590959B01AC01BD01B7
:100EA000CF010895EE0FFF1F0590F491E02D0994F6
:040EB000F894FFCFE4
:100EB4002C204C53423A002C204D53423A002C2013
:100EC4003078003078002C204D53423A20002C20FA
:100ED4004C53423A2000564D4450455F31007C004B
:100EE4005F564D445045002C2000564D4450565FEB
:100EF400317C5F564D4450560053656E736F7220BB
:100F0400416464726573733A2000466C6F772052B3
:100F1400656164696E6720286465632920006269DD
:100F24006E000000000078047F051B0437042704CA
:020F3400550462
:00000001FF
