:100000000C9448000C9470000C9470000C947000D8
:100010000C9470000C9470000C9470000C947000A0
:100020000C9470000C9470000C9470000C94700090
:100030000C9470000C9470000C9470000C94700080
:100040000C9455010C9470000C9480030C940304E0
:100050000C9470000C9470000C9470000C94700060
:100060000C9470000C947000466C6F7720526561A0
:1000700064696E67202864656329200053656E7388
:100080006F7220416464726573733A200000B60396
:1000900011241FBECFEFD8E0DEBFCDBF11E0A0E03E
:1000A000B1E0E2E8F2E102C005900D92A632B1079C
:1000B000D9F711E0A6E2B1E001C01D92AC3CB10756
:1000C000E1F710E0C0E9D0E004C02297FE010E94F1
:1000D0003B09CE38D107C9F70E9429040C943F0987
:1000E0000C9400006CE370E00E94F008882777FD14
:1000F0008095982F0E94B6070895DF92EF92FF92A5
:100100000F931F930E94290189EBE82EF12CF70130
:10011000808180E80E944101F701808181EF0E9487
:100120004101F70180810E943101F701808181E85E
:100130000E944101F70180810E944B01D82EF701F6
:1001400080810E944B01082FF701E0800E944B0143
:100150000E9439019D2D80E010E0082B192BC80169
:100160001F910F91FF90EF90DF9008958F929F92D3
:10017000AF92BF92CF92DF92EF92FF920F931F93B5
:100180000E947D007C010E9472004B015C010FE225
:1001900011E0C801B7014AE050E00E94340580E058
:1001A000C82E81E0D82EC801B6010E94A405C8015E
:1001B000B70142E050E00E943405C801B6010E9438
:1001C000A405C801B501A40122E030E00E948B061D
:1001D00064EF71E080E090E00E94D8011F910F91E0
:1001E000FF90EF90DF90CF90BF90AF909F908F9057
:1001F00008950F931F930FE211E0C80140E052EC05
:1002000061E070E026E00E947002C8016CE770E0D7
:100210000E946204C80161E870E04AE050E00E9478
:1002200085050E942001C80168E670E00E94620412
:10023000C80163E071E00E949E061F910F9108952E
:100240001092B90088E48093B80084E08093BC00E9
:10025000089584EA8093BC008091BC0087FFFCCFA6
:10026000089584EA8093BC008091BC0087FFFCCF96
:10027000089584E98093BC008091BC0084FFFCCF8A
:1002800008958093BB0084E88093BC008091BC00FB
:1002900087FFFCCF089584EC8093BC008091BC0064
:1002A00087FFFCCF8091BB0008951F920F920FB67D
:1002B0000F9211242F933F938F939F93AF93BF93EC
:1002C00080912A0190912B01A0912C01B0912D01D8
:1002D00030912E010196A11DB11D232F2D5F2D37C9
:1002E00020F02D570196A11DB11D20932E01809362
:1002F0002A0190932B01A0932C01B0932D018091A2
:10030000260190912701A0912801B0912901019621
:10031000A11DB11D8093260190932701A093280170
:10032000B0932901BF91AF919F918F913F912F91F0
:100330000F900FBE0F901F901895789484B582602F
:1003400084BD84B5816084BD85B5826085BD85B579
:10035000816085BDEEE6F0E0808181608083E1E828
:10036000F0E0108280818260808380818160808360
:10037000E0E8F0E0808181608083E1EBF0E0808163
:1003800084608083E0EBF0E0808181608083EAE735
:10039000F0E08081846080838081826080838081BE
:1003A000816080838081806880831092C10008957D
:1003B000EF92FF920F931F93CF93DF937B018C01FA
:1003C0003FB7F8948091260190912701A0912801D0
:1003D000B091290126B5A89B05C02F3F19F00196C1
:1003E000A11DB11D3FBFBA2FA92F982F8827820FBB
:1003F000911DA11DB11D52E0880F991FAA1FBB1F9F
:100400005A95D1F7EC0130C00E94B1063FB7F8947D
:100410008091260190912701A0912801B091290196
:1004200026B5A89B05C02F3F19F00196A11DB11D4F
:100430003FBFBA2FA92F982F8827820F911DA11D8A
:10044000B11D32E0880F991FAA1FBB1F3A95D1F743
:100450008C1B9D0B885E9340B8F20894E108F1086C
:1004600001091109C851DC4FE114F104010511051E
:1004700059F6DF91CF911F910F91FF90EF90089562
:10048000DC015C968C915C97FD01E80FF11DE35A4D
:10049000FF4F20815C968C915C9790E001968F7362
:1004A00090705C968C935C975696ED91FC91579763
:1004B00020835096ED91FC915197808180648083D8
:1004C0005B969C915B975C968C915C97981739F43E
:1004D0005296ED91FC91539780818F7D8083089592
:1004E000DF92EF92FF920F931F93CF93DF93EC0174
:1004F0007A018B01D22EE889F98982E0808340302D
:1005000081EE580780E0680780E07807A1F060E09E
:1005100079E08DE390E0A80197010E940309215042
:10052000304040405040569547953795279580E19B
:100530002030380798F0E889F989108260E874E87B
:100540008EE190E0A80197010E94030921503040FC
:10055000404050405695479537952795EC85FD8549
:100560003083EE85FF852083188EEC89FD89D0824B
:10057000EA89FB89808180618083EA89FB898081A7
:1005800088608083EA89FB89808180688083EA892A
:10059000FB8980818F7D8083DF91CF911F910F91A7
:1005A000FF90EF90DF900895FC01218D828D30E067
:1005B000205C3F4F281B31092F733070C90108950B
:1005C000FC01918D828D981719F42FEF3FEF06C033
:1005D000828DE80FF11D858D282F30E0C901089527
:1005E000DC0159969C9159975A968C915A97981775
:1005F00019F42FEF3FEF10C05A968C915A97FD01D6
:10060000E80FF11D958D5A968C915A978F5F8F73D5
:100610005A968C93292F30E0C9010895CF93DF9328
:10062000EC01888D882361F419C08C9185FF0AC084
:10063000E889F989808185FF05C0CE010E944002CA
:10064000AA89BB898C9185FD05C0E889F9898081DB
:1006500086FD04C00FB607FEE8CFF4CFDF91CF913F
:1006600008950F931F93CF93DF93EC01062F9B8D7B
:100670008C8D981791F5E889F989808185FF2DC0C7
:10068000EE89FF896083E889F989808180648083AD
:100690001DC00FB607FC08C0E889F989808185FF75
:1006A00003C0CE010E9440028C8D181791F38B8DF0
:1006B000FE01E80FF11DE35AFF4F00831B8FEA890B
:1006C000FB8980818062808381E0888F81E090E077
:1006D000DF91CF911F910F9108951B8D1F5F1F73A5
:1006E000E3CF89EF93E0892B51F080E090E0892BF4
:1006F00031F00E94F903882311F00E940000089550
:100700001F920F920FB60F9211242F938F939F93E6
:10071000EF93FF93E0913F01F0914001808182FDD2
:1007200016C0E0914501F091460120819091480169
:100730009F5F9F7380914901981771F0E091480184
:10074000F0E0E15DFE4F258F9093480105C0E091F8
:100750004501F0914601E081FF91EF919F918F91CA
:100760002F910F900FBE0F901F901895109232018D
:100770001092310188EE93E0A0E0B0E08093330165
:1007800090933401A0933501B093360189E191E053
:100790009093300180932F0185EC90E090933C0181
:1007A00080933B0184EC90E090933E0180933D0167
:1007B00080EC90E09093400180933F0181EC90E0C9
:1007C000909342018093410182EC90E09093440128
:1007D0008093430186EC90E090934601809345011D
:1007E000109248011092490110924A0110924B0157
:1007F00008958FE291E00E94D40220E0892B09F055
:1008000021E0822F08951F920F920FB60F921124AC
:100810002F933F934F935F936F937F938F939F9308
:10082000AF93BF93EF93FF938FE291E00E9440025A
:10083000FF91EF91BF91AF919F918F917F916F91B8
:100840005F914F913F912F910F900FBE0F901F908E
:100850001895CF93DF930E949D010E94F900C1E794
:10086000D3E00E94B6002097E1F30E947103F9CF14
:10087000CF92DF92EF92FF920F931F93CF93DF936C
:100880007C016B018A01C0E0D0E00FC0D6016D9100
:100890006D01D701ED91FC910190F081E02DC70130
:1008A0000995C80FD91F015010400115110571F7A6
:1008B000CE01DF91CF911F910F91FF90EF90DF90CC
:1008C000CF900895EF92FF920F931F93CF93DF93F2
:1008D0007C018B01C0E0D0E0F8010F5F1F4F6491F5
:1008E000662359F0D701ED91FC910190F081E02D44
:1008F000C7010995C80FD91FEFCFCE01DF91CF9166
:100900001F910F91FF90EF900895EF92FF920F9338
:100910001F938C01DC01ED91FC910190F081E02DA1
:100920006DE009957C01D801ED91FC910190F08179
:10093000E02DC8016AE009959C012E0D3F1DC901FB
:100940001F910F91FF90EF900895CF93DF93EC01EB
:100950006115710519F420E030E00FC0DB010D9046
:100960000020E9F71197A61BB70BE881F9810280F7
:10097000F381E02DAD0109959C01C901DF91CF9173
:1009800008954F925F927F928F929F92AF92BF9203
:10099000CF92DF92EF92FF920F931F93DF93CF934B
:1009A000CDB7DEB7A1970FB6F894DEBF0FBECDBFAF
:1009B0002C01742ECB01223008F42AE019A231E276
:1009C000C32ED12CCC0EDD1E822E9924AA24BB244A
:1009D000672D752FA50194010E94030979018A01F1
:1009E000C801B701A50194010E94D108472D461BFB
:1009F0000894C108D1084A3014F4405D01C0495C34
:100A0000F6014083E114F1040105110521F07E2C6B
:100A10005F2DC801DDCFC201B6010E94A504A196D9
:100A20000FB6F894DEBF0FBECDBFCF91DF911F91FF
:100A30000F91FF90EF90DF90CF90BF90AF909F907D
:100A40008F907F905F904F900895DC0121153105C4
:100A500041F4ED91FC910190F081E02D642F099516
:100A600008950E94C1040895EF92FF920F931F937F
:100A70009A017B0100E010E0B801A7010E94250562
:100A80001F910F91FF90EF900895CF92DF92EF9218
:100A9000FF920F931F93CF93DF93EC016A017B01C9
:100AA0002115310541F4E881F9810190F081E02DB3
:100AB000642F09951FC02A303105D1F477FF17C084
:100AC000E881F9810190F081E02D6DE209958C01BA
:100AD00044275527BA014C195D096E097F09CE01DB
:100AE0002AE00E94C1049801280F391F04C02AE09F
:100AF0000E94C1049C01C901DF91CF911F910F9108
:100B0000FF90EF90DF90CF900895CF92DF92EF9219
:100B1000FF920F931F936C017B019A010027F7FC52
:100B20000095102FB801A7010E9445058C01C60150
:100B30000E948504080F191FC8011F910F91FF9093
:100B4000EF90DF90CF9008950E94A50408957F92C2
:100B50008F929F92AF92BF92CF92DF92EF92FF92CD
:100B60000F931F93CF93DF934C017A018B01722E69
:100B7000CB01BA01A80197010E94CD08882321F07A
:100B8000C40167E071E021C0C0E0D0E05701680116
:100B9000E894D7F8C601B5012FEF3FEF4FE75FE7C5
:100BA0000E94CD08882351F4C601B5012FEF3FEF15
:100BB0004FE75FE70E941707181614F0C1E0D0E076
:100BC000219739F0C4016BE071E00E94A504EC01AB
:100BD00093C0C801B7012FEF3FEF4FE75FE40E94DA
:100BE0006608181654F0C801B7012FEF3FEF4FE722
:100BF0005FEC0E941707882324F4C4016FE071E0C2
:100C0000E4CFC801B70120E030E040E050E00E94AE
:100C1000170787FD03C0C0E0D0E00EC0D401ED91FE
:100C2000FC910190F081E02DC4016DE20995EC0189
:100C300017FB109517F9109520E030E040E05FE3D6
:100C4000DD240BC0CA01B90120E030E040E251E4EC
:100C50000E941B079B01AC01D394D71498F3C801E1
:100C6000B7010E94B3065B016C010E9488077B01FB
:100C70008C01C401B801A7012AE030E00E942505DB
:100C8000C80FD91F772039F0C40163E171E00E94D9
:100C9000A504C80FD91FC801B7010E94B4079B0162
:100CA000AC01C601B5010E94B20624C020E030E0CC
:100CB00040E251E40E946A087B018C010E94830794
:100CC0005B016C01CC24B7FCC094DC2CC401B601E0
:100CD000A5012AE030E00E944505C80FD91FC601D2
:100CE000B5010E94B6079B01AC01C801B7010E9483
:100CF000B2067A947720D1F6CE01DF91CF911F9181
:100D00000F91FF90EF90DF90CF90BF90AF909F90AA
:100D10008F907F900895EF92FF920F931F937C0125
:100D20000E94A7058C01C7010E948504080F191FA6
:100D3000C8011F910F91FF90EF900895EF92FF92DD
:100D40000F931F937C010E94A5048C01C7010E9490
:100D50008504080F191FC8011F910F91FF90EF9094
:100D6000089508955058BB27AA270ED075C166D1A3
:100D700030F06BD120F031F49F3F11F41EF45BC1D1
:100D80000EF4E095E7FB51C1E92F77D180F3BA1754
:100D9000620773078407950718F071F49EF58FC1F9
:100DA0000EF4E0950B2EBA2FA02D0B01B901900186
:100DB0000C01CA01A0011124FF27591B99F0593FCA
:100DC00050F4503E68F11A16F040A22F232F342F12
:100DD0004427585FF3CF469537952795A795F04060
:100DE0005395C9F77EF41F16BA0B620B730B840B75
:100DF000BAF09150A1F0FF0FBB1F661F771F881F2D
:100E0000C2F70EC0BA0F621F731F841F48F4879584
:100E100077956795B795F7959E3F08F0B3CF939573
:100E2000880F08F09927EE0F979587950895D9D0E8
:100E300008F481E008950CD00FC107D140F0FED036
:100E400030F021F45F3F19F0F0C0511139C1F3C007
:100E500014D198F39923C9F35523B1F3951B550B7E
:100E6000BB27AA2762177307840738F09F5F5F4F7D
:100E7000220F331F441FAA1FA9F333D00E2E3AF0BE
:100E8000E0E830D091505040E695001CCAF729D0D8
:100E9000FE2F27D0660F771F881FBB1F2617370727
:100EA0004807AB07B0E809F0BB0B802DBF01FF2757
:100EB00093585F4F2AF09E3F510568F0B6C000C1BD
:100EC0005F3FECF3983EDCF3869577956795B79591
:100ED000F7959F5FC9F7880F911D9695879597F9AC
:100EE0000895E1E0660F771F881FBB1F6217730725
:100EF0008407BA0720F0621B730B840BBA0BEE1F3A
:100F000088F7E095089504D06894B111D9C0089588
:100F1000BCD088F09F5790F0B92F9927B751A0F017
:100F2000D1F0660F771F881F991F1AF0BA95C9F77D
:100F300012C0B13081F0C3D0B1E00895C0C0672FB6
:100F4000782F8827B85F39F0B93FCCF3869577952D
:100F50006795B395D9F73EF4909580957095619516
:100F60007F4F8F4F9F4F0895E89409C097FB3EF441
:100F700090958095709561957F4F8F4F9F4F9923E6
:100F8000A9F0F92F96E9BB279395F6958795779564
:100F90006795B795F111F8CFFAF4BB0F11F460FF24
:100FA0001BC06F5F7F4F8F4F9F4F16C0882311F07C
:100FB00096E911C0772321F09EE8872F762F05C090
:100FC000662371F096E8862F70E060E02AF09A952B
:100FD000660F771F881FDAF7880F9695879597F920
:100FE0000895990F0008550FAA0BE0E8FEEF1616BA
:100FF0001706E807F907C0F012161306E407F5070D
:1010000098F0621B730B840B950B39F40A2661F080
:10101000232B242B252B21F408950A2609F4A14023
:10102000A6958FEF811D811D089597F99F6780E830
:1010300070E060E008959FEF80EC089500240A942A
:101040001616170618060906089500240A941216A3
:101050001306140605060895092E0394000C11F4D6
:10106000882352F0BB0F40F4BF2B11F460FF04C083
:101070006F5F7F4F8F4F9F4F089557FD9058440FDC
:10108000551F59F05F3F71F04795880F97FB991FE7
:1010900061F09F3F79F087950895121613061406A4
:1010A000551FF2CF4695F1DF08C016161706180631
:1010B000991FF1CF86957105610508940895E8940C
:1010C000BB2766277727CB0197F908958ADF08F4B5
:1010D0008FEF08950BD0C0CFB1DF28F0B6DF18F046
:1010E000952309F0A2CFA7CF1124EACFC6DFA0F342
:1010F000959FD1F3950F50E0551F629FF001729FAD
:10110000BB27F00DB11D639FAA27F00DB11DAA1FCB
:10111000649F6627B00DA11D661F829F2227B00D18
:10112000A11D621F739FB00DA11D621F839FA00DA3
:10113000611D221F749F3327A00D611D231F849FF3
:10114000600D211D822F762F6A2F11249F5750404A
:101150008AF0E1F088234AF0EE0FFF1FBB1F661FE5
:10116000771F881F91505040A9F79E3F510570F09E
:101170005CCFA6CF5F3FECF3983EDCF38695779586
:101180006795B795F795E7959F5FC1F7FE2B880F99
:10119000911D9695879597F9089523DF880B990BF4
:1011A0000895629FD001739FF001829FE00DF11DB1
:1011B000649FE00DF11D929FF00D839FF00D749FD1
:1011C000F00D659FF00D9927729FB00DE11DF91F7D
:1011D000639FB00DE11DF91FBD01CF0111240895DA
:1011E00097FB092E07260AD077FD04D02ED006D013
:1011F00000201AF4709561957F4F0895F6F7909549
:1012000081959F4F0895A1E21A2EAA1BBB1BFD01D9
:101210000DC0AA1FBB1FEE1FFF1FA217B307E407D5
:10122000F50720F0A21BB30BE40BF50B661F771F2D
:10123000881F991F1A9469F760957095809590950D
:101240009B01AC01BD01CF010895AA1BBB1B51E15D
:1012500007C0AA1FBB1FA617B70710F0A61BB70B26
:10126000881F991F5A95A9F780959095BC01CD01CB
:101270000895EE0FFF1F0590F491E02D0994F89466
:02128000FFCF9E
:101282002C200062696E006E616E00696E66006FEE
:101292007666002E000000000031033804D402F00C
:0612A20002E0020E030051
:00000001FF
