:100000000C9435000C945D000C945D000C945D0024
:100010000C945D000C945D000C945D000C945D00EC
:100020000C945D000C945D000C945D000C945D00DC
:100030000C945D000C945D000C945D000C945D00CC
:100040000C9423010C945D000C944E030C94D1038A
:100050000C945D000C945D000C945D000C945D00AC
:100060000C945D000C945D00840311241FBECFEF3F
:10007000D8E0DEBFCDBF11E0A0E0B1E0ECEDF1E1F2
:1000800002C005900D92AC35B107D9F712E0ACE58E
:10009000B1E001C01D92A230B107E1F710E0CAE65D
:1000A000D0E004C02297FE010E94E808C836D107BC
:1000B000C9F70E94F7030C94EC080C9400006CE361
:1000C00070E00E949D08882777FD8095982F0E94F8
:1000D00063070895FF920F931F930E94F70080E833
:1000E0000E940F0181EF0E940F010E94FF0081E832
:1000F0000E940F010E941901F82E0E941901082F79
:100100000E9419010E9407019F2D80E010E0082B3A
:10011000192BC8011F910F91FF900895AF92BF92C4
:10012000CF92DF92EF92FF920F931F930E946A008B
:10013000B82EA92E0E945F006B017C0105E611E03C
:10014000C80160E071E00E945105C8016B2D7A2D55
:100150004AE050E00E941F05C80166E071E00E947D
:100160005105C801B701A60122E030E00E9438061F
:1001700068EE73E080E090E00E94A6011F910F916D
:10018000FF90EF90DF90CF90BF90AF9008950F93C6
:100190001F9305E611E0C80140E052EC61E070E019
:1001A00026E00E943E02C80164E171E00E94510510
:1001B000C80161E870E04AE050E00E9432050E9408
:1001C000EE00C80165E271E00E945105C80169E3D3
:1001D00071E00E944B061F910F9108951092B90093
:1001E00088E48093B80084E08093BC00089584EA9A
:1001F0008093BC008091BC0087FFFCCF089584EA07
:100200008093BC008091BC0087FFFCCF089584E9F7
:100210008093BC008091BC0084FFFCCF0895809344
:10022000BB0084E88093BC008091BC0087FFFCCFBA
:10023000089584EC8093BC008091BC0087FFFCCFC4
:100240008091BB0008951F920F920FB60F92112458
:100250002F933F938F939F93AF93BF9380916001B0
:1002600090916101A0916201B091630130916401AC
:100270000196A11DB11D232F2D5F2D3720F02D5785
:100280000196A11DB11D209364018093600190939C
:100290006101A0936201B093630180915C01909130
:1002A0005D01A0915E01B0915F010196A11DB11D9C
:1002B00080935C0190935D01A0935E01B0935F0118
:1002C000BF91AF919F918F913F912F910F900FBE52
:1002D0000F901F901895789484B5826084BD84B582
:1002E000816084BD85B5826085BD85B5816085BD31
:1002F000EEE6F0E0808181608083E1E8F0E010824A
:10030000808182608083808181608083E0E8F0E08A
:10031000808181608083E1EBF0E080818460808374
:10032000E0EBF0E0808181608083EAE7F0E08081AB
:10033000846080838081826080838081816080830B
:100340008081806880831092C1000895EF92FF92AF
:100350000F931F93CF93DF937B018C013FB7F894EA
:1003600080915C0190915D01A0915E01B0915F016F
:1003700026B5A89B05C02F3F19F00196A11DB11D00
:100380003FBFBA2FA92F982F8827820F911DA11D3B
:10039000B11D52E0880F991FAA1FBB1F5A95D1F7B4
:1003A000EC0130C00E945E063FB7F89480915C017A
:1003B00090915D01A0915E01B0915F0126B5A89B6F
:1003C00005C02F3F19F00196A11DB11D3FBFBA2FE7
:1003D000A92F982F8827820F911DA11DB11D32E0F2
:1003E000880F991FAA1FBB1F3A95D1F78C1B9D0B35
:1003F000885E9340B8F20894E108F10801091109F8
:10040000C851DC4FE114F1040105110559F6DF91E3
:10041000CF911F910F91FF90EF900895DC015C96B2
:100420008C915C97FD01E80FF11DE35AFF4F20818D
:100430005C968C915C9790E001968F7390705C96BF
:100440008C935C975696ED91FC915797208350962C
:10045000ED91FC9151978081806480835B969C91A3
:100460005B975C968C915C97981739F45296ED9156
:10047000FC91539780818F7D80830895DF92EF9266
:10048000FF920F931F93CF93DF93EC017A018B01BF
:10049000D22EE889F98982E08083403081EE5807C6
:1004A00080E0680780E07807A1F060E079E08DE304
:1004B00090E0A80197010E94B008215030404040D0
:1004C0005040569547953795279580E1203038075D
:1004D00098F0E889F989108260E874E88EE190E08C
:1004E000A80197010E94B008215030404040504080
:1004F0005695479537952795EC85FD853083EE8594
:10050000FF852083188EEC89FD89D082EA89FB89DA
:10051000808180618083EA89FB8980818860808313
:10052000EA89FB89808180688083EA89FB898081F0
:100530008F7D8083DF91CF911F910F91FF90EF907E
:10054000DF900895FC01218D828D30E0205C3F4FCB
:10055000281B31092F733070C9010895FC01918D5A
:10056000828D981719F42FEF3FEF06C0828DE80FA8
:10057000F11D858D282F30E0C9010895DC015996C1
:100580009C9159975A968C915A97981719F42FEF76
:100590003FEF10C05A968C915A97FD01E80FF11D5C
:1005A000958D5A968C915A978F5F8F735A968C932C
:1005B000292F30E0C9010895CF93DF93EC01888D96
:1005C000882361F419C08C9185FF0AC0E889F989F4
:1005D000808185FF05C0CE010E940E02AA89BB89D9
:1005E0008C9185FD05C0E889F989808186FD04C06C
:1005F0000FB607FEE8CFF4CFDF91CF9108950F93A8
:100600001F93CF93DF93EC01062F9B8D8C8D981752
:1006100091F5E889F989808185FF2DC0EE89FF89F0
:100620006083E889F9898081806480831DC00FB66A
:1006300007FC08C0E889F989808185FF03C0CE01E5
:100640000E940E028C8D181791F38B8DFE01E80F1E
:10065000F11DE35AFF4F00831B8FEA89FB898081DC
:100660008062808381E0888F81E090E0DF91CF918C
:100670001F910F9108951B8D1F5F1F73E3CF87ECB0
:1006800093E0892B51F080E090E0892B31F00E94BB
:10069000C703882311F00E94000008951F920F9253
:1006A0000FB60F9211242F938F939F93EF93FF9385
:1006B000E0917501F0917601808182FD16C0E09194
:1006C0007B01F0917C01208190917E019F5F9F735F
:1006D00080917F01981771F0E0917E01F0E0EB5975
:1006E000FE4F258F90937E0105C0E0917B01F09134
:1006F0007C01E081FF91EF919F918F912F910F905D
:100700000FBE0F901F90189510926801109267010C
:1007100088EE93E0A0E0B0E08093690190936A01D5
:10072000A0936B01B0936C018FE491E0909366010C
:100730008093650185EC90E0909372018093710144
:1007400084EC90E0909374018093730180EC90E0CE
:10075000909376018093750181EC90E090937801FD
:100760008093770182EC90E090937A0180937901F5
:1007700086EC90E090937C0180937B0110927E0147
:1007800010927F011092800110928101089585E6F8
:1007900091E00E94A20220E0892B09F021E0822F43
:1007A00008951F920F920FB60F9211242F933F932B
:1007B0004F935F936F937F938F939F93AF93BF9369
:1007C000EF93FF9385E691E00E940E02FF91EF9177
:1007D000BF91AF919F918F917F916F915F914F9159
:1007E0003F912F910F900FBE0F901F901895CF93B0
:1007F000DF930E946B010E94C700CFE3D3E00E9409
:100800008E002097E1F30E943F03F9CFCF92DF9251
:10081000EF92FF920F931F93CF93DF937C016B01B5
:100820008A01C0E0D0E00FC0D6016D916D01D70103
:10083000ED91FC910190F081E02DC7010995C80F61
:10084000D91F015010400115110571F7CE01DF913C
:10085000CF911F910F91FF90EF90DF90CF9008956F
:10086000EF92FF920F931F938C01DC01ED91FC91AD
:100870000190F081E02D6DE009957C01D801ED91AA
:10088000FC910190F081E02DC8016AE009959C017E
:100890002E0D3F1DC9011F910F91FF90EF900895FC
:1008A000CF93DF93EC016115710519F420E030E07E
:1008B0000FC0DB010D900020E9F71197A61BB70BC5
:1008C000E881F9810280F381E02DAD0109959C0159
:1008D000C901DF91CF9108954F925F927F928F92DD
:1008E0009F92AF92BF92CF92DF92EF92FF920F93BF
:1008F0001F93DF93CF93CDB7DEB7A1970FB6F894D0
:10090000DEBF0FBECDBF2C01742ECB01223008F408
:100910002AE019A231E2C32ED12CCC0EDD1E822E8C
:100920009924AA24BB24672D752FA50194010E9448
:10093000B00879018A01C801B701A50194010E949C
:100940007E08472D461B0894C108D1084A3014F48C
:10095000405D01C0495CF6014083E114F1040105EA
:10096000110521F07E2C5F2DC801DDCFC201B6013B
:100970000E945004A1960FB6F894DEBF0FBECDBF03
:10098000CF91DF911F910F91FF90EF90DF90CF906B
:10099000BF90AF909F908F907F905F904F90089501
:1009A000DC012115310541F4ED91FC910190F081BC
:1009B000E02D642F099508950E946C040895CF924C
:1009C000DF92EF92FF920F931F93CF93DF93EC018F
:1009D0006A017B012115310541F4E881F98101901B
:1009E000F081E02D642F09951FC02A303105D1F424
:1009F00077FF17C0E881F9810190F081E02D6DE269
:100A000009958C0144275527BA014C195D096E09D7
:100A10007F09CE012AE00E946C049801280F391F3B
:100A200004C02AE00E946C049C01C901DF91CF91AF
:100A30001F910F91FF90EF90DF90CF900895EF926C
:100A4000FF920F931F937B019A010027F7FC0095FB
:100A5000102FB801A7010E94DF041F910F91FF9092
:100A6000EF900895CF92DF92EF92FF920F931F9332
:100A70006C017B019A010027F7FC0095102FB8014B
:100A8000A7010E94DF048C01C6010E943004080FF8
:100A9000191FC8011F910F91FF90EF90DF90CF9029
:100AA00008950E94500408957F928F929F92AF9272
:100AB000BF92CF92DF92EF92FF920F931F93CF934B
:100AC000DF934C017A018B01722ECB01BA01A80190
:100AD00097010E947A08882321F0C4016DE371E038
:100AE00021C0C0E0D0E057016801E894D7F8C60102
:100AF000B5012FEF3FEF4FE75FE70E947A088823A9
:100B000051F4C601B5012FEF3FEF4FE75FE70E94B9
:100B1000C406181614F0C1E0D0E0219739F0C401E2
:100B200061E471E00E945004EC0193C0C801B70178
:100B30002FEF3FEF4FE75FE40E941308181654F0C1
:100B4000C801B7012FEF3FEF4FE75FEC0E94C406EB
:100B5000882324F4C40165E471E0E4CFC801B7013F
:100B600020E030E040E050E00E94C40687FD03C072
:100B7000C0E0D0E00EC0D401ED91FC910190F08175
:100B8000E02DC4016DE20995EC0117FB109517F9F2
:100B9000109520E030E040E05FE3DD240BC0CA01A7
:100BA000B90120E030E040E251E40E94C8069B0118
:100BB000AC01D394D71498F3C801B7010E94600622
:100BC0005B016C010E9435077B018C01C401B801F7
:100BD000A7012AE030E00E94D004C80FD91F772077
:100BE00039F0C40169E471E00E945004C80FD91FB4
:100BF000C801B7010E9461079B01AC01C601B501A4
:100C00000E945F0624C020E030E040E251E40E94F0
:100C100017087B018C010E9430075B016C01CC241A
:100C2000B7FCC094DC2CC401B601A5012AE030E079
:100C30000E94DF04C80FD91FC601B5010E946307D7
:100C40009B01AC01C801B7010E945F067A9477202E
:100C5000D1F6CE01DF91CF911F910F91FF90EF90D0
:100C6000DF90CF90BF90AF909F908F907F9008952E
:100C7000EF92FF920F931F937C010E9454058C0109
:100C8000C7010E943004080F191FC8011F910F915E
:100C9000FF90EF900895EF92FF920F931F937C01C6
:100CA0000E9450048C01C7010E943004080F191FD4
:100CB000C8011F910F91FF90EF900895089550582B
:100CC000BB27AA270ED075C166D130F06BD120F0BA
:100CD00031F49F3F11F41EF45BC10EF4E095E7FB85
:100CE00051C1E92F77D180F3BA17620773078407E0
:100CF000950718F071F49EF58FC10EF4E0950B2E58
:100D0000BA2FA02D0B01B90190010C01CA01A0015D
:100D10001124FF27591B99F0593F50F4503E68F1B8
:100D20001A16F040A22F232F342F4427585FF3CFF9
:100D3000469537952795A795F0405395C9F77EF4CA
:100D40001F16BA0B620B730B840BBAF09150A1F013
:100D5000FF0FBB1F661F771F881FC2F70EC0BA0F99
:100D6000621F731F841F48F4879577956795B79521
:100D7000F7959E3F08F0B3CF9395880F08F0992719
:100D8000EE0F979587950895D9D008F481E00895DE
:100D90000CD00FC107D140F0FED030F021F45F3FFE
:100DA00019F0F0C0511139C1F3C014D198F399234F
:100DB000C9F35523B1F3951B550BBB27AA2762171F
:100DC0007307840738F09F5F5F4F220F331F441F64
:100DD000AA1FA9F333D00E2E3AF0E0E830D091509C
:100DE0005040E695001CCAF729D0FE2F27D0660F89
:100DF000771F881FBB1F261737074807AB07B0E8C8
:100E000009F0BB0B802DBF01FF2793585F4F2AF0DD
:100E10009E3F510568F0B6C000C15F3FECF3983EBD
:100E2000DCF3869577956795B795F7959F5FC9F73A
:100E3000880F911D9695879597F90895E1E0660FC3
:100E4000771F881FBB1F621773078407BA0720F03C
:100E5000621B730B840BBA0BEE1F88F7E0950895A5
:100E600004D06894B111D9C00895BCD088F09F57C0
:100E700090F0B92F9927B751A0F0D1F0660F771FE6
:100E8000881F991F1AF0BA95C9F712C0B13081F0C6
:100E9000C3D0B1E00895C0C0672F782F8827B85F0E
:100EA00039F0B93FCCF3869577956795B395D9F727
:100EB0003EF490958095709561957F4F8F4F9F4F31
:100EC0000895E89409C097FB3EF49095809570953D
:100ED00061957F4F8F4F9F4F9923A9F0F92F96E986
:100EE000BB279395F695879577956795B795F111FB
:100EF000F8CFFAF4BB0F11F460FF1BC06F5F7F4F98
:100F00008F4F9F4F16C0882311F096E911C07723A9
:100F100021F09EE8872F762F05C0662371F096E8B2
:100F2000862F70E060E02AF09A95660F771F881F81
:100F3000DAF7880F9695879597F90895990F000825
:100F4000550FAA0BE0E8FEEF16161706E807F9079B
:100F5000C0F012161306E407F50798F0621B730B36
:100F6000840B950B39F40A2661F0232B242B252BB7
:100F700021F408950A2609F4A140A6958FEF811D5A
:100F8000811D089597F99F6780E870E060E00895FB
:100F90009FEF80EC089500240A9416161706180691
:100FA0000906089500240A9412161306140605066D
:100FB0000895092E0394000C11F4882352F0BB0FFE
:100FC00040F4BF2B11F460FF04C06F5F7F4F8F4F61
:100FD0009F4F089557FD9058440F551F59F05F3F9C
:100FE00071F04795880F97FB991F61F09F3F79F04B
:100FF00087950895121613061406551FF2CF4695CD
:10100000F1DF08C0161617061806991FF1CF86954E
:101010007105610508940895E894BB276627772732
:10102000CB0197F908958ADF08F48FEF08950BD06C
:10103000C0CFB1DF28F0B6DF18F0952309F0A2CFBA
:10104000A7CF1124EACFC6DFA0F3959FD1F3950F68
:1010500050E0551F629FF001729FBB27F00DB11D3C
:10106000639FAA27F00DB11DAA1F649F6627B00DCC
:10107000A11D661F829F2227B00DA11D621F739FB5
:10108000B00DA11D621F839FA00D611D221F749FC3
:101090003327A00D611D231F849F600D211D822F0A
:1010A000762F6A2F11249F5750408AF0E1F0882351
:1010B0004AF0EE0FFF1FBB1F661F771F881F91505E
:1010C0005040A9F79E3F510570F05CCFA6CF5F3F1F
:1010D000ECF3983EDCF3869577956795B795F79591
:1010E000E7959F5FC1F7FE2B880F911D9695879519
:1010F00097F9089523DF880B990B0895629FD0011B
:10110000739FF001829FE00DF11D649FE00DF11DC2
:10111000929FF00D839FF00D749FF00D659FF00D71
:101120009927729FB00DE11DF91F639FB00DE11D5E
:10113000F91FBD01CF011124089597FB092E072641
:101140000AD077FD04D02ED006D000201AF4709576
:1011500061957F4F0895F6F7909581959F4F08957B
:10116000A1E21A2EAA1BBB1BFD010DC0AA1FBB1FAB
:10117000EE1FFF1FA217B307E407F50720F0A21B1D
:10118000B30BE40BF50B661F771F881F991F1A948A
:1011900069F760957095809590959B01AC01BD01B4
:1011A000CF010895AA1BBB1B51E107C0AA1FBB1F9B
:1011B000A617B70710F0A61BB70B881F991F5A95E3
:1011C000A9F780959095BC01CD010895EE0FFF1F02
:0C11D0000590F491E02D0994F894FFCFF5
:1011DC005261773A20002041637475616C2056612E
:1011EC006C3A200053656E736F72204164647265B3
:1011FC0073733A2000466C6F772052656164696E98
:10120C0067202864656329200062696E006E616E38
:10121C0000696E66006F7666002E0000000000FF0D
:0C122C00020604A202BE02AE02DC0200B8
:00000001FF
