:100000000C9435000C945D000C945D000C945D0024
:100010000C945D000C945D000C945D000C945D00EC
:100020000C945D000C945D000C945D000C945D00DC
:100030000C945D000C945D000C945D000C945D00CC
:100040000C94A7010C945D000C94D2030C945504FD
:100050000C945D000C945D000C945D000C945D00AC
:100060000C945D000C945D00080411241FBECFEFBA
:10007000D8E0DEBFCDBF11E0A0E0B1E0E8ECFCE0ED
:1000800002C005900D92A23CB107D9F712E0A2EC94
:10009000B1E001C01D92A836B107E1F710E0CAE651
:1000A000D0E004C02297FE010E945E06C836D10748
:1000B000C9F70E947B040C9462060C940000AF9276
:1000C000BF92CF92DF92EF92FF920F931F930E9405
:1000D0008A0199EBE92EF12CF701D0800BEC11E0AD
:1000E000C80160E071E00E940406C8016D2D40E186
:1000F00050E00E94740580E80E949D01F701D080C5
:10010000C8016CE071E00E940406C8016D2D40E159
:1001100050E00E94740581EF0E949D01F701D0809C
:10012000C80168E171E00E940406C8016D2D40E13C
:1001300050E00E9474050E948A01F701D080C80136
:1001400064E271E00E940406C8016D2D40E150E0B8
:100150000E94740581E80E949D01F701D080C801CA
:1001600060E371E00E940406C8016D2D40E150E09B
:100170000E947405F701D080C8016CE371E00E9411
:100180000406C8016D2D40E150E00E9474058BEB20
:10019000A82EB12CF501D080C80168E471E00E945E
:1001A0000406C8016D2D42E050E00E94740581E014
:1001B0000E949D01F701D080C8016EE471E00E94A9
:1001C0000406C8016D2D40E150E00E947405F50160
:1001D000C080C8016AE571E00E940406C8016C2D68
:1001E00042E050E00E94740581E00E949D01F70109
:1001F000D080C80160E671E00E940406C8016D2D40
:1002000040E150E00E947405F701D080C8016CE61F
:1002100071E00E940406C8016D2D40E150E00E948B
:10022000740581E00E949D01F701F080C80168E734
:1002300071E00E940406C8016F2D40E150E00E9469
:1002400074050E9499018C2D90E01F910F91FF90F1
:10025000EF90DF90CF90BF90AF900895EF92FF9214
:100260000F931F930E945F007C010BEC11E0C8010B
:10027000B7014AE050E00E94D205C80165E871E08C
:100280000E940406C801B70142E050E00E94E50563
:1002900068EE73E080E090E00E942A021F910F91C7
:1002A000FF90EF9008950F931F930BEC11E0C8019E
:1002B00040E052EC61E070E026E00E94C202C8011A
:1002C00062E070E04AE050E00E946305C80168E81F
:1002D00071E00E940406C80161E870E04AE050E065
:1002E0000E94E5050E948101C80169E971E00E9450
:1002F0000406C8016DEA71E00E9407061F910F9184
:1003000008951092B90088E48093B80084E0809347
:10031000BC00089584EA8093BC008091BC0087FFF4
:10032000FCCF8091BC00883019F480E88093BC0039
:10033000089584E98093BC0008958093BB00809168
:10034000BC0087FFFCCF84E88093BC0008951F9217
:100350000F920FB60F9211242F933F938F939F9379
:10036000AF93BF938091C6019091C701A091C8013E
:10037000B091C9013091CA010196A11DB11D232F71
:100380002D5F2D3720F02D570196A11DB11D209313
:10039000CA018093C6019093C701A093C801B0938E
:1003A000C9018091C2019091C301A091C401B09193
:1003B000C5010196A11DB11D8093C2019093C30197
:1003C000A093C401B093C501BF91AF919F918F914C
:1003D0003F912F910F900FBE0F901F90189578941A
:1003E00084B5826084BD84B5816084BD85B582603A
:1003F00085BD85B5816085BDEEE6F0E080818160D8
:100400008083E1E8F0E010828081826080838081D7
:1004100081608083E0E8F0E0808181608083E1EBAF
:10042000F0E0808184608083E0EBF0E08081816097
:100430008083EAE7F0E0808184608083808182604D
:100440008083808181608083808180688083109236
:10045000C1000895EF92FF920F931F93CF93DF9304
:100460007B018C013FB7F8948091C2019091C30148
:10047000A091C401B091C50126B5A89B05C02F3F2E
:1004800019F00196A11DB11D3FBFBA2FA92F982FBA
:100490008827820F911DA11DB11D52E0880F991F61
:1004A000AA1FBB1F5A95D1F7EC0130C00E941A0653
:1004B0003FB7F8948091C2019091C301A091C4010B
:1004C000B091C50126B5A89B05C02F3F19F0019634
:1004D000A11DB11D3FBFBA2FA92F982F8827820FCA
:1004E000911DA11DB11D32E0880F991FAA1FBB1FCE
:1004F0003A95D1F78C1B9D0B885E9340B8F2089417
:10050000E108F10801091109C851DC4FE114F104B7
:100510000105110559F6DF91CF911F910F91FF90C1
:10052000EF900895DC015C968C915C97FD01E80FDB
:10053000F11DE35AFF4F20815C968C915C9790E00F
:1005400001968F7390705C968C935C975696ED91A4
:10055000FC91579720835096ED91FC9151978081A3
:10056000806480835B969C915B975C968C915C9792
:10057000981739F45296ED91FC91539780818F7DB5
:1005800080830895DF92EF92FF920F931F93CF9392
:10059000DF93EC017A018B01D22EE889F98982E0A0
:1005A0008083403081EE580780E0680780E078075C
:1005B000A1F060E079E08DE390E0A80197010E944E
:1005C0003A06215030404040504056954795379567
:1005D000279580E12030380798F0E889F989108262
:1005E00060E874E88EE190E0A80197010E943A0665
:1005F00021503040404050405695479537952795BB
:10060000EC85FD853083EE85FF852083188EEC898F
:10061000FD89D082EA89FB89808180618083EA89B3
:10062000FB89808188608083EA89FB89808180687A
:100630008083EA89FB8980818F7D8083DF91CF91E0
:100640001F910F91FF90EF90DF900895FC01218D95
:10065000828D30E0205C3F4F281B31092F733070B2
:10066000C9010895FC01918D828D981719F42FEF1F
:100670003FEF06C0828DE80FF11D858D282F30E0F9
:10068000C9010895DC0159969C9159975A968C910D
:100690005A97981719F42FEF3FEF10C05A968C9184
:1006A0005A97FD01E80FF11D958D5A968C915A9736
:1006B0008F5F8F735A968C93292F30E0C90108956C
:1006C000CF93DF93EC01888D882361F419C08C915E
:1006D00085FF0AC0E889F989808185FF05C0CE01C0
:1006E0000E949202AA89BB898C9185FD05C0E88988
:1006F000F989808186FD04C00FB607FEE8CFF4CFEC
:10070000DF91CF9108950F931F93CF93DF93EC0167
:10071000062F9B8D8C8D981791F5E889F98980813A
:1007200085FF2DC0EE89FF896083E889F989808182
:10073000806480831DC00FB607FC08C0E889F98972
:10074000808185FF03C0CE010E9492028C8D181714
:1007500091F38B8DFE01E80FF11DE35AFF4F0083EB
:100760001B8FEA89FB8980818062808381E0888F8A
:1007700081E090E0DF91CF911F910F9108951B8D43
:100780001F5F1F73E3CF8BE494E0892B51F080E06F
:1007900090E0892B31F00E944B04882311F00E94D5
:1007A000000008951F920F920FB60F9211242F93FD
:1007B0008F939F93EF93FF93E091DB01F091DC0126
:1007C000808182FD16C0E091E101F091E20120817B
:1007D0009091E4019F5F9F738091E501981771F0FC
:1007E000E091E401F0E0E553FE4F258F9093E401A2
:1007F00005C0E091E101F091E201E081FF91EF910C
:100800009F918F912F910F900FBE0F901F90189571
:100810001092CE011092CD0188EE93E0A0E0B0E0FE
:100820008093CF019093D001A093D101B093D201D6
:1008300085EB91E09093CC018093CB0185EC90E027
:100840009093D8018093D70184EC90E09093DA01E3
:100850008093D90180EC90E09093DC018093DB01E0
:1008600081EC90E09093DE018093DD0182EC90E0DA
:100870009093E0018093DF0186EC90E09093E20199
:100880008093E1011092E4011092E5011092E601DB
:100890001092E70108958BEC91E00E94260320E07E
:1008A000892B09F021E0822F08951F920F920FB635
:1008B0000F9211242F933F934F935F936F937F93E6
:1008C0008F939F93AF93BF93EF93FF938BEC91E044
:1008D0000E949202FF91EF91BF91AF919F918F91F2
:1008E0007F916F915F914F913F912F910F900FBE2C
:1008F0000F901F901895CF93DF930E94EF010E94F5
:100900005301C3ECD3E00E942E012097E1F30E9433
:10091000C303F9CFCF92DF92EF92FF920F931F9311
:10092000CF93DF937C016B018A01C0E0D0E00FC060
:10093000D6016D916D01D701ED91FC910190F0818F
:10094000E02DC7010995C80FD91F015010400115AE
:10095000110571F7CE01DF91CF911F910F91FF909B
:10096000EF90DF90CF900895EF92FF920F931F9337
:100970008C01DC01ED91FC910190F081E02D6DE0A6
:1009800009957C01D801ED91FC910190F081E02D59
:10099000C8016AE009959C012E0D3F1DC9011F91F8
:1009A0000F91FF90EF900895CF93DF93EC016115C5
:1009B000710519F420E030E00FC0DB010D9000203C
:1009C000E9F71197A61BB70BE881F9810280F38143
:1009D000E02DAD0109959C01C901DF91CF910895EA
:1009E0004F925F927F928F929F92AF92BF92CF92DF
:1009F000DF92EF92FF920F931F93DF93CF93CDB7C8
:100A0000DEB7A1970FB6F894DEBF0FBECDBF2C01A5
:100A1000742ECB01223008F42AE019A231E2C32E51
:100A2000D12CCC0EDD1E822E9924AA24BB24672D46
:100A3000752FA50194010E943A0679018A01C80127
:100A4000B701A50194010E941B06472D461B08947F
:100A5000C108D1084A3014F4405D01C0495CF60178
:100A60004083E114F1040105110521F07E2C5F2D76
:100A7000C801DDCFC201B6010E94D404A1960FB611
:100A8000F894DEBF0FBECDBFCF91DF911F910F91C4
:100A9000FF90EF90DF90CF90BF90AF909F908F909E
:100AA0007F905F904F900895DC012115310541F44E
:100AB000ED91FC910190F081E02D642F099508954E
:100AC0000E94F0040895EF92FF920F931F939A01F2
:100AD0007B0100E010E0B801A7010E9454051F91BE
:100AE0000F91FF90EF900895CF92DF92EF92FF92D7
:100AF0000F931F936C01E62E9A01FF2400E010E093
:100B0000B801A7010E9454058C01C6010E94B404DB
:100B1000080F191FC8011F910F91FF90EF90DF90F0
:100B2000CF900895CF92DF92EF92FF920F931F9391
:100B3000CF93DF93EC016A017B012115310541F46C
:100B4000E881F9810190F081E02D642F09951FC0A3
:100B50002A303105D1F477FF17C0E881F98101907F
:100B6000F081E02D6DE209958C0144275527BA01EB
:100B70004C195D096E097F09CE012AE00E94F0043C
:100B80009801280F391F04C02AE00E94F0049C013C
:100B9000C901DF91CF911F910F91FF90EF90DF90EE
:100BA000CF900895EF92FF920F931F937B019A01CC
:100BB0000027F7FC0095102FB801A7010E949205AD
:100BC0001F910F91FF90EF900895CF92DF92EF92D7
:100BD000FF920F931F936C017B019A010027F7FC92
:100BE0000095102FB801A7010E9492058C01C60143
:100BF0000E94B404080F191FC8011F910F91FF90A4
:100C0000EF90DF90CF9008950E94D4040895EF9262
:100C1000FF920F931F937C010E94D4048C01C701A3
:100C20000E94B404080F191FC8011F910F91FF9073
:100C3000EF9008950895629FD001739FF001829F05
:100C4000E00DF11D649FE00DF11D929FF00D839F5B
:100C5000F00D749FF00D659FF00D9927729FB00DF8
:100C6000E11DF91F639FB00DE11DF91FBD01CF010B
:100C700011240895A1E21A2EAA1BBB1BFD010DC071
:100C8000AA1FBB1FEE1FFF1FA217B307E407F5073C
:100C900020F0A21BB30BE40BF50B661F771F881F18
:100CA000991F1A9469F760957095809590959B01AE
:100CB000AC01BD01CF010895EE0FFF1F0590F49127
:080CC000E02D0994F894FFCF28
:100CC800312E205374617475733A2000322E2053EC
:100CD80074617475733A2000332E205374617475EF
:100CE800733A2000342E205374617475733A2000CF
:100CF800352E205374617475733A2000362E2053B4
:100D080074617475733A20004D53423A2000372EAF
:100D1800205374617475733A20004C53423A200092
:100D2800382E205374617475733A2000392E20537D
:100D380074617475733A200031302E2053746174D5
:100D480075733A20002C200053656E736F72204132
:100D58006464726573733A2000466C6F772052653D
:100D68006164696E67202864656329200062696E82
:100D7800000000000083038A042603420332036054
:020D8800030066
:00000001FF
